:100000000C9438000C945D060C945D060C945D060F
:100010000C945D060C945D060C945D060C945D06D4
:100020000C945D060C945D060C945D060C945D06C4
:100030000C945D060C945D060C945D060C945D06B4
:100040000C945D060C945D060C945D060C945D06A4
:100050000C945D060C945D060C945D060C945D0694
:100060000C945D060C945D0601000140000CC80074
:1000700011241FBECFEFD8E0DEBFCDBFE8E6F0E031
:1000800040E017C0B591A59135912591059107FDE7
:100090000CC095918591EF01F92FE82F05900D92F5
:1000A000A217B307D9F7FE0104C01D92A217B30728
:1000B000E1F7EF36F40731F70E9462010C944B062A
:0400C000F894FFCFE2
:1000C400776F6168202D206F68006D79206261620E
:1000D4007900686F772062656175746966756C0074
:1000E400796F7520617265002000616E6400776F1E
:1000F40061682D6168006D79206461726C696E6756
:1001040000636F6D706C6574656C7920746F726ECA
:1001140000617061727400616E6420676F6E6500C7
:1001240077697468207468652073696E00616E6411
:100134002062656175746966756C00594F5520417C
:1001440052452021212100736F20676F6E6500697D
:10015400206C6F766520796F757220736B696E0001
:100164006F682D6F6820736F6F6F007768697465AF
:10017400006C6F766520796F757220746F75636893
:1001840000636F2D6F682D6C642061730069636573
:1001940000616E64206C6F76652065766572790007
:1001A40073696E676C65207465617200796F752080
:1001B400637279203A280069206A757374206C6F21
:1001C4007665007468652077617920796F75277288
:1001D40065006C6F73696E6720796F757220004CCF
:1001E40069666521212100692061646F726500746C
:1001F4006865206465737061697200696E20796F47
:1002040075720065796573203A28006920776F72EA
:100214007368697000796F7572206C697073006F10
:100224006E6365207265640061732077696E650092
:10023400616E64206920637261766500796F7572FE
:10024400207363656E740073656E64696E672073F2
:1002540068697665727300646F776E206D790073D8
:1002640070696E6500616E642069206A757374003C
:100274006C6F7665207468652077617900796F7595
:100284002772650072756E6E696E67206F757420D3
:100294006F66004C49464520212121006775697429
:1002A400617220736F6C6F00596F75722054757290
:1002B4006E006D616465206279006E6A756E75000A
:1002C400CF93DF930E94300668E371E080E00E94E0
:1002D400140668E271E081E00E94140660E271E0B5
:1002E40082E00E94140668E171E083E00E94140633
:1002F40060E371E084E00E94140660E171E085E04F
:100304000E94140668E071E086E00E94140660E032
:1003140071E087E00E9414062FEF33E284EF21504E
:1003240030408040E1F700C0000023E531E040E0C8
:1003340060E080E00E94F40524E631E040E060E003
:1003440081E00E94F4059AEA24ED3CE181E09150B9
:10035400204030408040D9F700000E9456062FE626
:1003640031E040E064E080E00E94F4052CEE30E0EF
:1003740040E064E081E00E94F40580E00E94A10571
:1003840080E00E94A10580E00E94A1059FEF29EB77
:100394003BED915020403040E1F700C000000E9446
:1003A400560625E731E040E060E080E00E94F40575
:1003B40025E831E040E060E081E00E94F4058FEF41
:1003C40093E224EF30E08150904020403040D9F750
:1003D40000C000000E94560621E931E040E066E0DA
:1003E40080E00E94F4052CEE30E040E065E081E01E
:1003F4000E94F40584E00E94A10584E00E94A10506
:1004040084E00E94A1058FEF9DE725EE8150904086
:100414002040E1F700C000000E94560625E931E0C3
:1004240040E060E080E00E94F40524EA31E040E02E
:1004340060E081E00E94F4053FEF89EB9BED3150D1
:1004440080409040E1F700C000000E94560620EB77
:1004540031E040E064E081E00E94F40580EC0E9419
:100464006E052FEF33E284EF215030408040E1F7F6
:1004740000C000000E9456062BEB31E040E060E033
:1004840080E00E94F40527EC31E040E060E081E088
:100494000E94F4059FEF2BE732E991502040304051
:1004A400E1F700C000000E94560626ED31E040E06E
:1004B40060E080E00E94F4058FEF9BE722E9815021
:1004C40090402040E1F700C000000E94560623EE51
:1004D40031E040E066E080E00E94F40580EC0E9498
:1004E4006E0580E00E94A10580E00E94A10580E0E5
:1004F4000E94A10580E00E94A10580E00E94A10560
:1005040080E00E94A10580E00E94A10580E00E9495
:10051400A10580E00E94A10580E00E94A10580E081
:100524000E94A10580E00E94A10580E00E94A1052F
:1005340080E00E94A10580E00E94A10580E00E9465
:10054400A1053FEF83E294EF315080409040E1F702
:1005540000C000000E9456060E9477042BEE31E092
:1005640040E060E080E00E94F4056CEE70E080E022
:100574000E94D40523EF31E040E063E081E00E9473
:10058400F4052FEF35EE8AEA215030408040E1F740
:1005940000C000000E9456062FEF31E040E060E00A
:1005A40080E00E94F40527E032E040E06CE081E066
:1005B4000E94F4059AEA2BEC3FED80E09150204034
:1005C40030408040D9F700000E9456062FE032E008
:1005D40040E064E080E00E94F40529E132E040E07C
:1005E40060E081E00E94F4059FEF2BE732E991502F
:1005F40020403040E1F700C000000E94560623E28C
:1006040032E040E060E080E00E94F4052CE232E059
:1006140040E065E081E00E94F4058AEA94ED2CE173
:1006240031E08150904020403040D9F700000E94D2
:10063400560624E332E040E064E080E00E94F405E2
:1006440020E432E040E065E081E00E94F4058FEFB1
:100654009BE722E9815090402040E1F700C0000070
:100664000E9456062BE432E040E060E080E00E9405
:10067400F4052BE532E040E069E081E00E94F405F6
:100684003FEF8FE493EC315080409040E1F700C09D
:1006940000000E94560623E632E040E065E080E078
:1006A4000E94F40580EC0E946E0582E00E94A10580
:1006B40082E00E94A10582E00E94A10582E00E94DE
:1006C400A10582E00E94A10582E00E94A10582E0CA
:1006D4000E94A10582E00E94A10582E00E94A1057A
:1006E40082E00E94A10582E00E94A10582E00E94AE
:1006F400A10582E00E94A10582E00E94A10582E09A
:100704000E94A10582E00E94A1052FEF35EE8AEA3E
:10071400215030408040E1F700C000000E9456069E
:1007240029E632E040E060E080E00E94F40524E73E
:1007340032E040E060E081E00E94F4059FEF2BE7A7
:1007440032E9915020403040E1F700C000000E949F
:10075400560621E832E040E065E080E00E94F405BE
:1007640028E832E040E060E081E00E94F4058FEF89
:100774009FE423EC815090402040E1F700C000004A
:100784000E94560627E932E040E062E080E00E94E1
:10079400F40580EC0E946E0580E00E94A10580E0D3
:1007A4000E94A10580E00E94A10580E00E94A105AD
:1007B40080E00E94A10580E00E94A10580E00E94E3
:1007C400A10580E00E94A10580E00E94A10580E0CF
:1007D4000E94A10580E00E94A10580E00E94A1057D
:1007E40080E00E94A10580E00E94A10580E00E94B3
:1007F400A10580E00E94A1053FEF83E294EF315010
:1008040080409040E1F700C000000E9456060E941C
:10081400770420EA32E040E061E080E00E94F405E1
:100824006CEE70E080E00E94D40583E00E94A10594
:100834002FEF37EA81E6215030408040E1F700C0D5
:10084400000080EC0E946E05C5E0D0E016C084E094
:100854000E946E0585E00E94A10586E00E94A10524
:1008640087E00E94A10586E00E94A10585E00E9420
:10087400A1058CE10E946E052196C431D1053CF39B
:1008840094E520E33DEC85E09150204030408040E9
:10089400D9F700C000C000000E9456062CEA32E0DE
:1008A40040E063E080E00E94F4059FEF2BE732E92B
:1008B400915020403040E1F700C000000E945606ED
:1008C4000E94770426EB32E040E060E080E00E9482
:1008D400F4052EEB32E040E066E081E00E94F4058E
:0A08E40080E090E0DF91CF910895CD
:1008EE0024EC30E040E063E080E00E94F4052EEC62
:1008FE0030E040E068E081E00E94F4052FEF33E243
:10090E0084EF215030408040E1F700C000000E948B
:10091E00560626ED30E040E060E080E00E94F405EF
:10092E0024EE30E040E066E081E00E94F4056CEEDB
:10093E0070E080E00E94D40583E00E94A1059FEF45
:10094E0023E234EF915020403040E1F700C0000028
:10095E000E9456062EEE30E040E066E080E00E94F7
:10096E00F40522EF30E040E067E081E00E94F405FC
:10097E008FEF9BE722E9815090402040E1F700C0C5
:10098E0000000E9456062AEF30E040E060E080E072
:10099E000E94F40525E031E040E061E081E00E9434
:1009AE00F4053FEF89EB9BED315080409040E1F72D
:1009BE0000C000000E94560625E131E040E060E0F4
:1009CE0081E00E94F4052FEF3BE782E92150304091
:1009DE008040E1F700C000000E9456062BE131E096
:1009EE0040E060E080E00E94F40524E231E040E067
:1009FE0063E081E00E94F4059FEF2BE732E991500E
:100A0E0020403040E1F700C000000E9456062EEC58
:100A1E0030E040E065E080E00E94F40521E331E043
:100A2E0040E063E081E00E94F4058FEF95EE2AEA44
:100A3E00815090402040E1F700C000000E94560611
:100A4E002FE331E040E062E080E00E94F4053FEFEA
:100A5E008BE792E9315080409040E1F700C00000F2
:100A6E000E9456062BE431E040E065E080E00E94F3
:100A7E00F40524E231E040E062E081E00E94F405FA
:100A8E002FEF3BE782E9215030408040E1F700C074
:100A9E0000000E9456062AEF30E040E063E080E05E
:100AAE000E94F4056CEE70E080E00E94D40583E0B5
:100ABE000E94A1059AEA2DED39E581E09150204082
:0E0ACE0030408040D9F700000E94560608957F
:100ADC009BB19F70282F207F922B9BB99BB19B7F42
:100AEC009BB99BB198609BB935E03A95F1F7000042
:100AFC009BB1977F9BB9EFE1F3E03197F1F700C021
:100B0C0000002BB1F0E18F9FC0011124922F9F7038
:100B1C00892B8BB98BB188608BB935E03A95F1F79D
:100B2C0000008BB1877F8BB98FE39FE10197F1F7C1
:060B3C0000C00000089556
:100B42009BB19F70282F207F922B9BB99BB1946001
:100B52009BB99BB198609BB935E03A95F1F70000DB
:100B62009BB1977F9BB9EFE1F3E03197F1F700C0BA
:100B720000002BB1F0E18F9FC0011124922F9F70D2
:100B8200892B8BB98BB188608BB935E03A95F1F737
:100B920000008BB1877F8BB98FE39FE10197F1F75B
:060BA20000C000000895F0
:100BA800CF92DF92EF92CF93DF936B01E82EC0E0F4
:100BB800D0E003C00E94A1052196AE2DC6018C0F7E
:100BC8009D1FA11DD7FDAA95FC018491A7FD8081D9
:100BD8008111F0CFDF91CF91EF90DF90CF90089502
:100BE800CF92DF92EF926901E42E811108C0603143
:100BF80030F4862F8F7080680E946E0509C081309E
:100C080039F4603128F4862F8F70806C0E946E054D
:100C18008E2DB6010E94D405EF90DF90CF900895F5
:100C28000F931F93CF93883098F48B0190E0089628
:100C3800880F880F880F0E946E05C0E007C0F80172
:100C4800EC0FF11D80810E94A105CF5FC830B8F379
:080C5800CF911F910F91089547
:100C60008FEF8AB92FEF89EF90E0215080409040BC
:100C7000E1F700C0000082E00E946E0588E20E9459
:100C80006E058CE00E946E0586E00E946E0581E094
:060C90000E946E050895AC
:100C9600EC010E9462060E946106CE010E94630674
:060CA600CE010E945F0672
:0E0CAC0081E00E946E0582E00E946E050895B0
:040CBA000C94000096
:040CBE000E94600030
:020CC200089593
:020CC400089591
:020CC60008958F
:080CC800001F1F1F1F1F1F006A
:080CD0000000001F1F1F1F00A0
:080CD80000000000001F1F00D6
:080CE000000A15110A040000CE
:080CE800031F1F1F1F1F030063
:080CF000000A0A000E110000C9
:080CF80004150E1F0E15040087
:080D0000000A1F1F0E04000091
:00000001FF
